{
  "contractName": "MobileID",
  "abi": [
    {
      "constant": true,
      "inputs": [
        {
          "name": "",
          "type": "address"
        },
        {
          "name": "",
          "type": "uint256"
        }
      ],
      "name": "records",
      "outputs": [
        {
          "name": "",
          "type": "string"
        }
      ],
      "payable": false,
      "stateMutability": "view",
      "type": "function"
    },
    {
      "constant": true,
      "inputs": [],
      "name": "owner",
      "outputs": [
        {
          "name": "",
          "type": "address"
        }
      ],
      "payable": false,
      "stateMutability": "view",
      "type": "function"
    },
    {
      "constant": true,
      "inputs": [
        {
          "name": "",
          "type": "address"
        }
      ],
      "name": "pks",
      "outputs": [
        {
          "name": "joined",
          "type": "bool"
        },
        {
          "name": "publicKey",
          "type": "string"
        }
      ],
      "payable": false,
      "stateMutability": "view",
      "type": "function"
    },
    {
      "inputs": [],
      "payable": false,
      "stateMutability": "nonpayable",
      "type": "constructor"
    },
    {
      "constant": false,
      "inputs": [
        {
          "name": "_issuerPublicKey",
          "type": "string"
        }
      ],
      "name": "setIssuerPublicKey",
      "outputs": [],
      "payable": false,
      "stateMutability": "nonpayable",
      "type": "function"
    },
    {
      "constant": true,
      "inputs": [],
      "name": "isIssuerPublicKey",
      "outputs": [
        {
          "name": "",
          "type": "bool"
        }
      ],
      "payable": false,
      "stateMutability": "view",
      "type": "function"
    },
    {
      "constant": false,
      "inputs": [
        {
          "name": "_addr",
          "type": "address"
        },
        {
          "name": "_publicKey",
          "type": "string"
        }
      ],
      "name": "setPublicKey",
      "outputs": [],
      "payable": false,
      "stateMutability": "nonpayable",
      "type": "function"
    },
    {
      "constant": false,
      "inputs": [],
      "name": "getIssuerPublicKey",
      "outputs": [
        {
          "name": "",
          "type": "string"
        }
      ],
      "payable": false,
      "stateMutability": "nonpayable",
      "type": "function"
    },
    {
      "constant": false,
      "inputs": [
        {
          "name": "_addr",
          "type": "address"
        }
      ],
      "name": "getPublicKey",
      "outputs": [
        {
          "name": "",
          "type": "string"
        }
      ],
      "payable": false,
      "stateMutability": "nonpayable",
      "type": "function"
    },
    {
      "constant": false,
      "inputs": [
        {
          "name": "_addr",
          "type": "address"
        }
      ],
      "name": "isPublicKey",
      "outputs": [
        {
          "name": "",
          "type": "bool"
        }
      ],
      "payable": false,
      "stateMutability": "nonpayable",
      "type": "function"
    },
    {
      "constant": false,
      "inputs": [
        {
          "name": "_addr",
          "type": "address"
        }
      ],
      "name": "deletePublicKey",
      "outputs": [],
      "payable": false,
      "stateMutability": "nonpayable",
      "type": "function"
    },
    {
      "constant": false,
      "inputs": [
        {
          "name": "_addr",
          "type": "address"
        },
        {
          "name": "_record",
          "type": "string"
        }
      ],
      "name": "setRecords",
      "outputs": [],
      "payable": false,
      "stateMutability": "nonpayable",
      "type": "function"
    },
    {
      "constant": false,
      "inputs": [
        {
          "name": "_addr",
          "type": "address"
        }
      ],
      "name": "getRecords",
      "outputs": [
        {
          "name": "",
          "type": "string[]"
        }
      ],
      "payable": false,
      "stateMutability": "nonpayable",
      "type": "function"
    },
    {
      "constant": true,
      "inputs": [],
      "name": "getBalance",
      "outputs": [
        {
          "name": "",
          "type": "uint256"
        }
      ],
      "payable": false,
      "stateMutability": "view",
      "type": "function"
    },
    {
      "constant": false,
      "inputs": [],
      "name": "deposit",
      "outputs": [],
      "payable": true,
      "stateMutability": "payable",
      "type": "function"
    },
    {
      "constant": false,
      "inputs": [
        {
          "name": "_value",
          "type": "uint256"
        }
      ],
      "name": "transfer",
      "outputs": [
        {
          "name": "",
          "type": "bool"
        }
      ],
      "payable": false,
      "stateMutability": "nonpayable",
      "type": "function"
    }
  ],
  "bytecode": "0x60806040526000600260006101000a81548160ff02191690831515021790555034801561002b57600080fd5b5033600260016101000a81548173ffffffffffffffffffffffffffffffffffffffff021916908373ffffffffffffffffffffffffffffffffffffffff1602179055506111f18061007c6000396000f3006080604052600436106100db576000357c0100000000000000000000000000000000000000000000000000000000900463ffffffff1680630a855133146100e057806312065fe01461010957806312514bba146101345780631bf9b325146101715780632d78d8a01461019a5780632f67d416146101d757806382a6c0ac14610200578063857cdbb81461023d5780638da5cb5b1461027a5780639356375c146102a5578063a0076e84146102e3578063bb04563414610320578063cbf1cf561461034b578063ccef46f114610376578063d0e30db01461039f575b600080fd5b3480156100ec57600080fd5b5061010760048036036101029190810190610d88565b6103a9565b005b34801561011557600080fd5b5061011e610429565b60405161012b9190611055565b60405180910390f35b34801561014057600080fd5b5061015b60048036036101569190810190610e59565b610448565b6040516101689190610fc6565b60405180910390f35b34801561017d57600080fd5b5061019860048036036101939190810190610d5f565b6104b0565b005b3480156101a657600080fd5b506101c160048036036101bc9190810190610d5f565b610518565b6040516101ce9190610fc6565b60405180910390f35b3480156101e357600080fd5b506101fe60048036036101f99190810190610d88565b610570565b005b34801561020c57600080fd5b5061022760048036036102229190810190610ddc565b610624565b6040516102349190611011565b60405180910390f35b34801561024957600080fd5b50610264600480360361025f9190810190610d5f565b6106ec565b6040516102719190611033565b60405180910390f35b34801561028657600080fd5b5061028f6107cf565b60405161029c9190610f89565b60405180910390f35b3480156102b157600080fd5b506102cc60048036036102c79190810190610d5f565b6107f5565b6040516102da929190610fe1565b60405180910390f35b3480156102ef57600080fd5b5061030a60048036036103059190810190610d5f565b6108be565b6040516103179190610fa4565b60405180910390f35b34801561032c57600080fd5b506103356109e6565b6040516103429190611033565b60405180910390f35b34801561035757600080fd5b50610360610ae9565b60405161036d9190610fc6565b60405180910390f35b34801561038257600080fd5b5061039d60048036036103989190810190610e18565b610b00565b005b6103a7610b96565b005b600160008373ffffffffffffffffffffffffffffffffffffffff1673ffffffffffffffffffffffffffffffffffffffff168152602001908152602001600020819080600181540180825580915050906001820390600052602060002001600090919290919091509080519060200190610423929190610bf4565b50505050565b60003073ffffffffffffffffffffffffffffffffffffffff1631905090565b600081610453610429565b1015151561046057600080fd5b3373ffffffffffffffffffffffffffffffffffffffff166108fc839081150290604051600060405180830381858888f193505050501580156104a6573d6000803e3d6000fd5b5060019050919050565b6000808273ffffffffffffffffffffffffffffffffffffffff1673ffffffffffffffffffffffffffffffffffffffff168152602001908152602001600020600080820160006101000a81549060ff02191690556001820160006105139190610c74565b505050565b60008060008373ffffffffffffffffffffffffffffffffffffffff1673ffffffffffffffffffffffffffffffffffffffff16815260200190815260200160002060000160009054906101000a900460ff169050919050565b60016000808473ffffffffffffffffffffffffffffffffffffffff1673ffffffffffffffffffffffffffffffffffffffff16815260200190815260200160002060000160006101000a81548160ff021916908315150217905550806000808473ffffffffffffffffffffffffffffffffffffffff1673ffffffffffffffffffffffffffffffffffffffff168152602001908152602001600020600101908051906020019061061f929190610bf4565b505050565b60016020528160005260406000208181548110151561063f57fe5b90600052602060002001600091509150508054600181600116156101000203166002900480601f0160208091040260200160405190810160405280929190818152602001828054600181600116156101000203166002900480156106e45780601f106106b9576101008083540402835291602001916106e4565b820191906000526020600020905b8154815290600101906020018083116106c757829003601f168201915b505050505081565b60606000808373ffffffffffffffffffffffffffffffffffffffff1673ffffffffffffffffffffffffffffffffffffffff1681526020019081526020016000206001018054600181600116156101000203166002900480601f0160208091040260200160405190810160405280929190818152602001828054600181600116156101000203166002900480156107c35780601f10610798576101008083540402835291602001916107c3565b820191906000526020600020905b8154815290600101906020018083116107a657829003601f168201915b50505050509050919050565b600260019054906101000a900473ffffffffffffffffffffffffffffffffffffffff1681565b60006020528060005260406000206000915090508060000160009054906101000a900460ff1690806001018054600181600116156101000203166002900480601f0160208091040260200160405190810160405280929190818152602001828054600181600116156101000203166002900480156108b45780601f10610889576101008083540402835291602001916108b4565b820191906000526020600020905b81548152906001019060200180831161089757829003601f168201915b5050505050905082565b6060600160008373ffffffffffffffffffffffffffffffffffffffff1673ffffffffffffffffffffffffffffffffffffffff168152602001908152602001600020805480602002602001604051908101604052809291908181526020016000905b828210156109db578382906000526020600020018054600181600116156101000203166002900480601f0160208091040260200160405190810160405280929190818152602001828054600181600116156101000203166002900480156109c75780601f1061099c576101008083540402835291602001916109c7565b820191906000526020600020905b8154815290600101906020018083116109aa57829003601f168201915b50505050508152602001906001019061091f565b505050509050919050565b6060600080600260019054906101000a900473ffffffffffffffffffffffffffffffffffffffff1673ffffffffffffffffffffffffffffffffffffffff1673ffffffffffffffffffffffffffffffffffffffff1681526020019081526020016000206001018054600181600116156101000203166002900480601f016020809104026020016040519081016040528092919081815260200182805460018160011615610100020316600290048015610adf5780601f10610ab457610100808354040283529160200191610adf565b820191906000526020600020905b815481529060010190602001808311610ac257829003601f168201915b5050505050905090565b6000600260009054906101000a900460ff16905090565b80600080600260019054906101000a900473ffffffffffffffffffffffffffffffffffffffff1673ffffffffffffffffffffffffffffffffffffffff1673ffffffffffffffffffffffffffffffffffffffff1681526020019081526020016000206001019080519060200190610b77929190610bf4565b506001600260006101000a81548160ff02191690831515021790555050565b600260019054906101000a900473ffffffffffffffffffffffffffffffffffffffff1673ffffffffffffffffffffffffffffffffffffffff163373ffffffffffffffffffffffffffffffffffffffff16141515610bf257600080fd5b565b828054600181600116156101000203166002900490600052602060002090601f016020900481019282601f10610c3557805160ff1916838001178555610c63565b82800160010185558215610c63579182015b82811115610c62578251825591602001919060010190610c47565b5b509050610c709190610cbc565b5090565b50805460018160011615610100020316600290046000825580601f10610c9a5750610cb9565b601f016020900490600052602060002090810190610cb89190610cbc565b5b50565b610cde91905b80821115610cda576000816000905550600101610cc2565b5090565b90565b6000610ced823561113a565b905092915050565b600082601f8301121515610d0857600080fd5b8135610d1b610d168261109d565b611070565b91508082526020830160208301858383011115610d3757600080fd5b610d42838284611164565b50505092915050565b6000610d57823561115a565b905092915050565b600060208284031215610d7157600080fd5b6000610d7f84828501610ce1565b91505092915050565b60008060408385031215610d9b57600080fd5b6000610da985828601610ce1565b925050602083013567ffffffffffffffff811115610dc657600080fd5b610dd285828601610cf5565b9150509250929050565b60008060408385031215610def57600080fd5b6000610dfd85828601610ce1565b9250506020610e0e85828601610d4b565b9150509250929050565b600060208284031215610e2a57600080fd5b600082013567ffffffffffffffff811115610e4457600080fd5b610e5084828501610cf5565b91505092915050565b600060208284031215610e6b57600080fd5b6000610e7984828501610d4b565b91505092915050565b610e8b81611104565b82525050565b6000610e9c826110d6565b80845260208401935083602082028501610eb5856110c9565b60005b84811015610eee578383038852610ed0838351610f44565b9250610edb826110f7565b9150602088019750600181019050610eb8565b508196508694505050505092915050565b610f0881611124565b82525050565b6000610f19826110ec565b808452610f2d816020860160208601611173565b610f36816111a6565b602085010191505092915050565b6000610f4f826110e1565b808452610f63816020860160208601611173565b610f6c816111a6565b602085010191505092915050565b610f8381611130565b82525050565b6000602082019050610f9e6000830184610e82565b92915050565b60006020820190508181036000830152610fbe8184610e91565b905092915050565b6000602082019050610fdb6000830184610eff565b92915050565b6000604082019050610ff66000830185610eff565b81810360208301526110088184610f44565b90509392505050565b6000602082019050818103600083015261102b8184610f44565b905092915050565b6000602082019050818103600083015261104d8184610f0e565b905092915050565b600060208201905061106a6000830184610f7a565b92915050565b6000604051905081810181811067ffffffffffffffff8211171561109357600080fd5b8060405250919050565b600067ffffffffffffffff8211156110b457600080fd5b601f19601f8301169050602081019050919050565b6000602082019050919050565b600081519050919050565b600081519050919050565b600081519050919050565b6000602082019050919050565b600073ffffffffffffffffffffffffffffffffffffffff82169050919050565b60008115159050919050565b6000819050919050565b600073ffffffffffffffffffffffffffffffffffffffff82169050919050565b6000819050919050565b82818337600083830152505050565b60005b83811015611191578082015181840152602081019050611176565b838111156111a0576000848401525b50505050565b6000601f19601f83011690509190505600a265627a7a7230582097683e04274f528cbdce844e9e1c9ac77f16a01364729383cd3ddea29d59cad36c6578706572696d656e74616cf50037",
  "source": "pragma solidity ^0.4.24;\npragma experimental ABIEncoderV2;\n\ncontract MobileID {\n\n    struct keyRing{\n        bool joined;\n        string publicKey;\n    }\n\n    mapping ( address => keyRing ) public pks;     // 공개키보관\n\n    mapping ( address => string[] ) public records;\n\n    bool private isIssuerKey = false;\n    address public owner;\n\n    constructor() public {\n        owner = msg.sender;\n    }\n    \n    function setIssuerPublicKey(string _issuerPublicKey) public {\n        pks[owner].publicKey = _issuerPublicKey;\n        isIssuerKey = true;\n    }\n\n    function isIssuerPublicKey() public view returns (bool) {\n        return isIssuerKey;\n    }\n\n    function setPublicKey(address _addr, string _publicKey) public {\n        pks[_addr].joined = true;\n        pks[_addr].publicKey = _publicKey;\n    }\n\n    function getIssuerPublicKey() public returns (string) {\n        return pks[owner].publicKey;\n    }\n\n    function getPublicKey(address _addr) public returns (string) {\n        return pks[_addr].publicKey;\n    }\n\n    function isPublicKey (address _addr) public returns (bool) {\n        return pks[_addr].joined;\n    }\n\n    function deletePublicKey (address _addr) public {\n        delete pks[_addr];\n    }\n\n    function setRecords (address _addr, string _record) {\n        records[_addr].push(_record);\n    }\n\n    function getRecords (address _addr) returns (string[]){\n        return records[_addr];\n    }\n\n    function getBalance() public view returns (uint) {\n        return address(this).balance;\n    }\n\n    function deposit() public payable {\n        require(msg.sender == owner);\n    }\n\n    function transfer(uint _value) public returns (bool) {\n        require(getBalance() >= _value);\n        msg.sender.transfer(_value);\n        return true;\n    }\n}\n",
  "sourcePath": "/Users/munjun-yeong/Desktop/myrepo/origin/mobileID_klaytn/contracts/MobileID.sol",
  "compiler": {
    "name": "solc",
    "version": "0.4.25+commit.59dbf8f1.Emscripten.clang"
  },
  "schemaVersion": "2.0.2",
  "updatedAt": "2020-09-05T07:00:10.851Z"
}